{
    "contractName": "PragmaNotLocked",
    "abi": [
        {
            "inputs": [],
            "name": "x",
            "outputs": [
                {
                    "internalType": "uint256",
                    "name": "",
                    "type": "uint256"
                }
            ],
            "stateMutability": "view",
            "type": "function"
        }
    ],
    "bytecode": "60806040526001600055348015601457600080fd5b50607d806100236000396000f3fe6080604052348015600f57600080fd5b506004361060285760003560e01c80630c55699c14602d575b600080fd5b603560005481565b60405190815260200160405180910390f3fea264697066735822122097a12233af16144ca0ed275404d1974eb17f4b2e8b7532d2993cb31c558ea96664736f6c63430008070033",
    "sourcePath": "c:/xampp/htdocs/sharessmartcontract/contracts/SwissShares.sol",
    "compiler": {
        "name": "solc",
        "version": "0.8.7+commit.e28d00a7"
    },
    "functionHashes": {
        "x()": "0c55699c"
    },
    "gasEstimates": {
        "creation": {
            "codeDepositCost": "25000",
            "executionCost": "22181",
            "totalCost": "47181"
        },
        "external": {
            "x()": "2261"
        }
    }
}