{
    "contractName": "SwissShares",
    "abi": [
        {
            "inputs": [
                {
                    "internalType": "uint256",
                    "name": "initialSupply",
                    "type": "uint256"
                }
            ],
            "stateMutability": "nonpayable",
            "type": "constructor"
        },
        {
            "anonymous": false,
            "inputs": [
                {
                    "indexed": true,
                    "internalType": "address",
                    "name": "account",
                    "type": "address"
                }
            ],
            "name": "AdminAdded",
            "type": "event"
        },
        {
            "anonymous": false,
            "inputs": [
                {
                    "indexed": true,
                    "internalType": "address",
                    "name": "account",
                    "type": "address"
                }
            ],
            "name": "AdminRemoved",
            "type": "event"
        },
        {
            "anonymous": false,
            "inputs": [
                {
                    "indexed": true,
                    "internalType": "address",
                    "name": "owner",
                    "type": "address"
                },
                {
                    "indexed": true,
                    "internalType": "address",
                    "name": "spender",
                    "type": "address"
                },
                {
                    "indexed": false,
                    "internalType": "uint256",
                    "name": "value",
                    "type": "uint256"
                }
            ],
            "name": "Approval",
            "type": "event"
        },
        {
            "anonymous": false,
            "inputs": [
                {
                    "indexed": true,
                    "internalType": "address",
                    "name": "authorizer",
                    "type": "address"
                },
                {
                    "indexed": true,
                    "internalType": "bytes32",
                    "name": "nonce",
                    "type": "bytes32"
                }
            ],
            "name": "AuthorizationCanceled",
            "type": "event"
        },
        {
            "anonymous": false,
            "inputs": [
                {
                    "indexed": true,
                    "internalType": "address",
                    "name": "authorizer",
                    "type": "address"
                },
                {
                    "indexed": true,
                    "internalType": "bytes32",
                    "name": "nonce",
                    "type": "bytes32"
                }
            ],
            "name": "AuthorizationUsed",
            "type": "event"
        },
        {
            "anonymous": false,
            "inputs": [
                {
                    "indexed": false,
                    "internalType": "address",
                    "name": "account",
                    "type": "address"
                }
            ],
            "name": "Paused",
            "type": "event"
        },
        {
            "anonymous": false,
            "inputs": [
                {
                    "indexed": true,
                    "internalType": "address",
                    "name": "from",
                    "type": "address"
                },
                {
                    "indexed": true,
                    "internalType": "address",
                    "name": "to",
                    "type": "address"
                },
                {
                    "indexed": false,
                    "internalType": "uint256",
                    "name": "value",
                    "type": "uint256"
                }
            ],
            "name": "Transfer",
            "type": "event"
        },
        {
            "anonymous": false,
            "inputs": [
                {
                    "indexed": false,
                    "internalType": "address",
                    "name": "account",
                    "type": "address"
                }
            ],
            "name": "Unpaused",
            "type": "event"
        },
        {
            "anonymous": false,
            "inputs": [
                {
                    "indexed": true,
                    "internalType": "address",
                    "name": "account",
                    "type": "address"
                }
            ],
            "name": "WalletAddedToWhitelist",
            "type": "event"
        },
        {
            "anonymous": false,
            "inputs": [
                {
                    "indexed": true,
                    "internalType": "address",
                    "name": "account",
                    "type": "address"
                }
            ],
            "name": "WalletRemovedFromWhitelist",
            "type": "event"
        },
        {
            "inputs": [],
            "name": "CANCEL_AUTHORIZATION_TYPEHASH",
            "outputs": [
                {
                    "internalType": "bytes32",
                    "name": "",
                    "type": "bytes32"
                }
            ],
            "stateMutability": "view",
            "type": "function"
        },
        {
            "inputs": [],
            "name": "DOMAIN_SEPARATOR",
            "outputs": [
                {
                    "internalType": "bytes32",
                    "name": "",
                    "type": "bytes32"
                }
            ],
            "stateMutability": "view",
            "type": "function"
        },
        {
            "inputs": [],
            "name": "PERMIT_TYPEHASH",
            "outputs": [
                {
                    "internalType": "bytes32",
                    "name": "",
                    "type": "bytes32"
                }
            ],
            "stateMutability": "view",
            "type": "function"
        },
        {
            "inputs": [],
            "name": "RECEIVE_WITH_AUTHORIZATION_TYPEHASH",
            "outputs": [
                {
                    "internalType": "bytes32",
                    "name": "",
                    "type": "bytes32"
                }
            ],
            "stateMutability": "view",
            "type": "function"
        },
        {
            "inputs": [],
            "name": "TRANSFER_WITH_AUTHORIZATION_TYPEHASH",
            "outputs": [
                {
                    "internalType": "bytes32",
                    "name": "",
                    "type": "bytes32"
                }
            ],
            "stateMutability": "view",
            "type": "function"
        },
        {
            "inputs": [
                {
                    "internalType": "address",
                    "name": "account",
                    "type": "address"
                }
            ],
            "name": "addAdmin",
            "outputs": [],
            "stateMutability": "nonpayable",
            "type": "function"
        },
        {
            "inputs": [
                {
                    "internalType": "address",
                    "name": "account",
                    "type": "address"
                }
            ],
            "name": "addWalletToWhitelist",
            "outputs": [],
            "stateMutability": "nonpayable",
            "type": "function"
        },
        {
            "inputs": [
                {
                    "internalType": "address",
                    "name": "owner",
                    "type": "address"
                },
                {
                    "internalType": "address",
                    "name": "spender",
                    "type": "address"
                }
            ],
            "name": "allowance",
            "outputs": [
                {
                    "internalType": "uint256",
                    "name": "",
                    "type": "uint256"
                }
            ],
            "stateMutability": "view",
            "type": "function"
        },
        {
            "inputs": [
                {
                    "internalType": "address",
                    "name": "spender",
                    "type": "address"
                },
                {
                    "internalType": "uint256",
                    "name": "amount",
                    "type": "uint256"
                }
            ],
            "name": "approve",
            "outputs": [
                {
                    "internalType": "bool",
                    "name": "",
                    "type": "bool"
                }
            ],
            "stateMutability": "nonpayable",
            "type": "function"
        },
        {
            "inputs": [
                {
                    "internalType": "address",
                    "name": "authorizer",
                    "type": "address"
                },
                {
                    "internalType": "bytes32",
                    "name": "nonce",
                    "type": "bytes32"
                }
            ],
            "name": "authorizationState",
            "outputs": [
                {
                    "internalType": "bool",
                    "name": "",
                    "type": "bool"
                }
            ],
            "stateMutability": "view",
            "type": "function"
        },
        {
            "inputs": [
                {
                    "internalType": "address",
                    "name": "account",
                    "type": "address"
                }
            ],
            "name": "balanceOf",
            "outputs": [
                {
                    "internalType": "uint256",
                    "name": "",
                    "type": "uint256"
                }
            ],
            "stateMutability": "view",
            "type": "function"
        },
        {
            "inputs": [
                {
                    "internalType": "uint256",
                    "name": "amount",
                    "type": "uint256"
                }
            ],
            "name": "burn",
            "outputs": [],
            "stateMutability": "nonpayable",
            "type": "function"
        },
        {
            "inputs": [
                {
                    "internalType": "address",
                    "name": "authorizer",
                    "type": "address"
                },
                {
                    "internalType": "bytes32",
                    "name": "nonce",
                    "type": "bytes32"
                },
                {
                    "internalType": "uint8",
                    "name": "v",
                    "type": "uint8"
                },
                {
                    "internalType": "bytes32",
                    "name": "r",
                    "type": "bytes32"
                },
                {
                    "internalType": "bytes32",
                    "name": "s",
                    "type": "bytes32"
                }
            ],
            "name": "cancelAuthorization",
            "outputs": [],
            "stateMutability": "nonpayable",
            "type": "function"
        },
        {
            "inputs": [],
            "name": "decimals",
            "outputs": [
                {
                    "internalType": "uint8",
                    "name": "",
                    "type": "uint8"
                }
            ],
            "stateMutability": "pure",
            "type": "function"
        },
        {
            "inputs": [
                {
                    "internalType": "address",
                    "name": "spender",
                    "type": "address"
                },
                {
                    "internalType": "uint256",
                    "name": "subtractedValue",
                    "type": "uint256"
                }
            ],
            "name": "decreaseAllowance",
            "outputs": [
                {
                    "internalType": "bool",
                    "name": "",
                    "type": "bool"
                }
            ],
            "stateMutability": "nonpayable",
            "type": "function"
        },
        {
            "inputs": [
                {
                    "internalType": "address",
                    "name": "account",
                    "type": "address"
                }
            ],
            "name": "freezeTransfersFromWallet",
            "outputs": [],
            "stateMutability": "nonpayable",
            "type": "function"
        },
        {
            "inputs": [],
            "name": "getAllTokenHolders",
            "outputs": [
                {
                    "internalType": "address[]",
                    "name": "",
                    "type": "address[]"
                }
            ],
            "stateMutability": "view",
            "type": "function"
        },
        {
            "inputs": [
                {
                    "internalType": "address",
                    "name": "spender",
                    "type": "address"
                },
                {
                    "internalType": "uint256",
                    "name": "addedValue",
                    "type": "uint256"
                }
            ],
            "name": "increaseAllowance",
            "outputs": [
                {
                    "internalType": "bool",
                    "name": "",
                    "type": "bool"
                }
            ],
            "stateMutability": "nonpayable",
            "type": "function"
        },
        {
            "inputs": [
                {
                    "internalType": "address",
                    "name": "account",
                    "type": "address"
                }
            ],
            "name": "isAdmin",
            "outputs": [
                {
                    "internalType": "bool",
                    "name": "",
                    "type": "bool"
                }
            ],
            "stateMutability": "view",
            "type": "function"
        },
        {
            "inputs": [
                {
                    "internalType": "address",
                    "name": "account",
                    "type": "address"
                }
            ],
            "name": "isWalletWhitelisted",
            "outputs": [
                {
                    "internalType": "bool",
                    "name": "",
                    "type": "bool"
                }
            ],
            "stateMutability": "view",
            "type": "function"
        },
        {
            "inputs": [
                {
                    "internalType": "uint256",
                    "name": "amount",
                    "type": "uint256"
                }
            ],
            "name": "mint",
            "outputs": [],
            "stateMutability": "nonpayable",
            "type": "function"
        },
        {
            "inputs": [],
            "name": "name",
            "outputs": [
                {
                    "internalType": "string",
                    "name": "",
                    "type": "string"
                }
            ],
            "stateMutability": "view",
            "type": "function"
        },
        {
            "inputs": [
                {
                    "internalType": "address",
                    "name": "owner",
                    "type": "address"
                }
            ],
            "name": "nonces",
            "outputs": [
                {
                    "internalType": "uint256",
                    "name": "",
                    "type": "uint256"
                }
            ],
            "stateMutability": "view",
            "type": "function"
        },
        {
            "inputs": [],
            "name": "pauseTransfers",
            "outputs": [],
            "stateMutability": "nonpayable",
            "type": "function"
        },
        {
            "inputs": [],
            "name": "paused",
            "outputs": [
                {
                    "internalType": "bool",
                    "name": "",
                    "type": "bool"
                }
            ],
            "stateMutability": "view",
            "type": "function"
        },
        {
            "inputs": [
                {
                    "internalType": "address",
                    "name": "owner",
                    "type": "address"
                },
                {
                    "internalType": "address",
                    "name": "spender",
                    "type": "address"
                },
                {
                    "internalType": "uint256",
                    "name": "value",
                    "type": "uint256"
                },
                {
                    "internalType": "uint256",
                    "name": "deadline",
                    "type": "uint256"
                },
                {
                    "internalType": "uint8",
                    "name": "v",
                    "type": "uint8"
                },
                {
                    "internalType": "bytes32",
                    "name": "r",
                    "type": "bytes32"
                },
                {
                    "internalType": "bytes32",
                    "name": "s",
                    "type": "bytes32"
                }
            ],
            "name": "permit",
            "outputs": [],
            "stateMutability": "nonpayable",
            "type": "function"
        },
        {
            "inputs": [
                {
                    "internalType": "address",
                    "name": "from",
                    "type": "address"
                },
                {
                    "internalType": "address",
                    "name": "to",
                    "type": "address"
                },
                {
                    "internalType": "uint256",
                    "name": "value",
                    "type": "uint256"
                },
                {
                    "internalType": "uint256",
                    "name": "validAfter",
                    "type": "uint256"
                },
                {
                    "internalType": "uint256",
                    "name": "validBefore",
                    "type": "uint256"
                },
                {
                    "internalType": "bytes32",
                    "name": "nonce",
                    "type": "bytes32"
                },
                {
                    "internalType": "uint8",
                    "name": "v",
                    "type": "uint8"
                },
                {
                    "internalType": "bytes32",
                    "name": "r",
                    "type": "bytes32"
                },
                {
                    "internalType": "bytes32",
                    "name": "s",
                    "type": "bytes32"
                }
            ],
            "name": "receiveWithAuthorization",
            "outputs": [],
            "stateMutability": "nonpayable",
            "type": "function"
        },
        {
            "inputs": [
                {
                    "internalType": "address",
                    "name": "account",
                    "type": "address"
                }
            ],
            "name": "removeAdmin",
            "outputs": [],
            "stateMutability": "nonpayable",
            "type": "function"
        },
        {
            "inputs": [
                {
                    "internalType": "address",
                    "name": "account",
                    "type": "address"
                }
            ],
            "name": "removeWalletFromWhitelist",
            "outputs": [],
            "stateMutability": "nonpayable",
            "type": "function"
        },
        {
            "inputs": [],
            "name": "symbol",
            "outputs": [
                {
                    "internalType": "string",
                    "name": "",
                    "type": "string"
                }
            ],
            "stateMutability": "view",
            "type": "function"
        },
        {
            "inputs": [],
            "name": "totalSupply",
            "outputs": [
                {
                    "internalType": "uint256",
                    "name": "",
                    "type": "uint256"
                }
            ],
            "stateMutability": "view",
            "type": "function"
        },
        {
            "inputs": [
                {
                    "internalType": "address",
                    "name": "recipient",
                    "type": "address"
                },
                {
                    "internalType": "uint256",
                    "name": "amount",
                    "type": "uint256"
                }
            ],
            "name": "transfer",
            "outputs": [
                {
                    "internalType": "bool",
                    "name": "",
                    "type": "bool"
                }
            ],
            "stateMutability": "nonpayable",
            "type": "function"
        },
        {
            "inputs": [
                {
                    "internalType": "address",
                    "name": "sender",
                    "type": "address"
                },
                {
                    "internalType": "address",
                    "name": "recipient",
                    "type": "address"
                },
                {
                    "internalType": "uint256",
                    "name": "amount",
                    "type": "uint256"
                }
            ],
            "name": "transferFrom",
            "outputs": [
                {
                    "internalType": "bool",
                    "name": "",
                    "type": "bool"
                }
            ],
            "stateMutability": "nonpayable",
            "type": "function"
        },
        {
            "inputs": [
                {
                    "internalType": "address",
                    "name": "from",
                    "type": "address"
                },
                {
                    "internalType": "address",
                    "name": "to",
                    "type": "address"
                },
                {
                    "internalType": "uint256",
                    "name": "value",
                    "type": "uint256"
                },
                {
                    "internalType": "uint256",
                    "name": "validAfter",
                    "type": "uint256"
                },
                {
                    "internalType": "uint256",
                    "name": "validBefore",
                    "type": "uint256"
                },
                {
                    "internalType": "bytes32",
                    "name": "nonce",
                    "type": "bytes32"
                },
                {
                    "internalType": "uint8",
                    "name": "v",
                    "type": "uint8"
                },
                {
                    "internalType": "bytes32",
                    "name": "r",
                    "type": "bytes32"
                },
                {
                    "internalType": "bytes32",
                    "name": "s",
                    "type": "bytes32"
                }
            ],
            "name": "transferWithAuthorization",
            "outputs": [],
            "stateMutability": "nonpayable",
            "type": "function"
        },
        {
            "inputs": [],
            "name": "unPauseTransfers",
            "outputs": [],
            "stateMutability": "nonpayable",
            "type": "function"
        }
    ],
    "bytecode": "60806040523480156200001157600080fd5b506040516200324638038062003246833981016040819052620000349162000a79565b6040518060400160405280600b81526020016a537769737353686172657360a81b8152506040518060400160405280600381526020016253534960e81b81525081600390805190602001906200008c929190620009d3565b508051620000a2906004906020840190620009d3565b50506005805460ff1916905550620000ba336200012e565b620000c5336200017a565b620000d13382620001c6565b620001246040518060400160405280600b81526020016a537769737353686172657360a81b815250604051806040016040528060018152602001603160f81b815250620002cb60201b62000f561760201c565b6006555062000b6a565b6001600160a01b038116600081815260096020526040808220805460ff19166001179055517f44d6d25963f097ad14f29f06854a01f575648a1ef82f30e562ccd3889717e3399190a250565b6001600160a01b0381166000818152600a6020526040808220805460ff19166001179055517f9ea20b4b24a73c0e970c10af330adec19eeef14a64c4738bf92fd21de1bbe5609190a250565b6001600160a01b038216620002225760405162461bcd60e51b815260206004820152601f60248201527f45524332303a206d696e7420746f20746865207a65726f20616464726573730060448201526064015b60405180910390fd5b620002306000838362000341565b806002600082825462000244919062000a93565b90915550506001600160a01b038216600090815260208190526040812080548392906200027390849062000a93565b90915550506040518181526001600160a01b038316906000907fddf252ad1be2c89b69c2b068fc378daa952ba7f163c4a11628f55a4df523b3ef9060200160405180910390a3620002c76000838362000618565b5050565b8151602080840191909120825183830120604080517f8b73c3c69bb8fe3d512ecc4cf759cc79239f7b179b0ffacaa9a75d522b39400f818601528082019390935260608301919091524660808301523060a0808401919091528151808403909101815260c0909201905280519101205b92915050565b620003598383836200077460201b62000fc81760201c565b6001811015620003b65760405162461bcd60e51b815260206004820152602160248201527f53776973735368617265733a204d696e696d756d20616d6f756e74206572726f6044820152603960f91b606482015260840162000219565b62989680811115620004155760405162461bcd60e51b815260206004820152602160248201527f53776973735368617265733a204d6178696d756d20616d6f756e74206572726f6044820152603960f91b606482015260840162000219565b6200042260018262000b05565b15620004875760405162461bcd60e51b815260206004820152602d60248201527f53776973735368617265733a2043616e2774207472616e73666572206672616360448201526c1d1a5bdb985b08185b5bdd5b9d609a1b606482015260840162000219565b6001600160a01b03831662000517576001600160a01b0382166000908152600a602052604090205460ff165b620005125760405162461bcd60e51b815260206004820152602860248201527f53776973735368617265733a205265636569766572206973206e6f74207768696044820152671d195b1a5cdd195960c21b606482015260840162000219565b505050565b6001600160a01b0382166200058e576001600160a01b0383166000908152600a602052604090205460ff16620005125760405162461bcd60e51b81526020600482015260266024820152600080516020620032268339815191526044820152651b1a5cdd195960d21b606482015260840162000219565b6001600160a01b0383166000908152600a602052604090205460ff16620005f65760405162461bcd60e51b81526020600482015260266024820152600080516020620032268339815191526044820152651b1a5cdd195960d21b606482015260840162000219565b6001600160a01b0382166000908152600a602052604090205460ff16620004b3565b620006308383836200051260201b6200102e1760201c565b6001600160a01b038216158015906200065f57506001600160a01b0382166000908152600b6020526040902054155b1562000682576200068082600c620007f460201b620010331790919060201c565b505b6001600160a01b0383166000908152600b602052604090205415801590620006cd57506001600160a01b0383166000908152600b6020526040902054620006cb90829062000aae565b155b15620006f057620006ee83600c6200080960201b620010461790919060201c565b505b6001600160a01b0382161562000730576001600160a01b0382166000908152600b6020526040812080548392906200072a90849062000a93565b90915550505b6001600160a01b0383161562000512576001600160a01b0383166000908152600b6020526040812080548392906200076a90849062000aae565b9091555050505050565b6200078c8383836200051260201b6200102e1760201c565b60055460ff1615620005125760405162461bcd60e51b815260206004820152602a60248201527f45524332305061757361626c653a20746f6b656e207472616e736665722077686044820152691a5b19481c185d5cd95960b21b606482015260840162000219565b600062000802838362000817565b9392505050565b60006200080283836200088c565b6001600160a01b03811660009081526001830160205260408120546200088357508154600180820184556000848152602080822090930180546001600160a01b0319166001600160a01b038616908117909155855490825282860190935260409020919091556200033b565b5060006200033b565b6001600160a01b03811660009081526001830160205260408120548015620009c8576000620008bd60018362000aae565b8554909150600090620008d39060019062000aae565b905081811462000966576000866000018281548110620008f757620008f762000b54565b60009182526020909120015487546001600160a01b039091169150819088908590811062000929576200092962000b54565b600091825260208083209190910180546001600160a01b0319166001600160a01b0394851617905592909116815260018801909152604090208390555b85548690806200097a576200097a62000b3e565b60008281526020808220830160001990810180546001600160a01b03191690559092019092556001600160a01b03871682526001888101909152604082209190915593506200033b92505050565b60009150506200033b565b828054620009e19062000ac8565b90600052602060002090601f01602090048101928262000a05576000855562000a50565b82601f1062000a2057805160ff191683800117855562000a50565b8280016001018555821562000a50579182015b8281111562000a5057825182559160200191906001019062000a33565b5062000a5e92915062000a62565b5090565b5b8082111562000a5e576000815560010162000a63565b60006020828403121562000a8c57600080fd5b5051919050565b6000821982111562000aa95762000aa962000b28565b500190565b60008282101562000ac35762000ac362000b28565b500390565b600181811c9082168062000add57607f821691505b6020821081141562000aff57634e487b7160e01b600052602260045260246000fd5b50919050565b60008262000b2357634e487b7160e01b600052601260045260246000fd5b500690565b634e487b7160e01b600052601160045260246000fd5b634e487b7160e01b600052603160045260246000fd5b634e487b7160e01b600052603260045260246000fd5b6126ac8062000b7a6000396000f3fe608060405234801561001057600080fd5b50600436106102115760003560e01c806370a0823111610125578063aac8f967116100ad578063d91694871161007c578063d9169487146104b8578063dd62ed3e146104df578063e3ee160e14610518578063e94a01021461052b578063ef55bec61461056457600080fd5b8063aac8f9671461046c578063ccf6644e1461047f578063ce23772b14610492578063d505accf146104a557600080fd5b806395d89b41116100f457806395d89b4114610404578063a0712d681461040c578063a0cc6a681461041f578063a457c2d714610446578063a9059cbb1461045957600080fd5b806370a0823114610383578063710d6a61146103ac5780637ecebe00146103b45780637f2eecc3146103dd57600080fd5b806332fb56ca116101a857806342966c681161017757806342966c681461033757806347af99571461034a5780635a049a70146103525780635c975abb14610365578063704802751461037057600080fd5b806332fb56ca146102f35780633644e5151461030857806339509351146103115780633f0f42e21461032457600080fd5b806323b872dd116101e457806323b872dd1461027e57806324d7806c1461029157806330adf81f146102bd578063313ce567146102e457600080fd5b806306fdde0314610216578063095ea7b3146102345780631785f53c1461025757806318160ddd1461026c575b600080fd5b61021e610577565b60405161022b919061247a565b60405180910390f35b61024761024236600461239c565b610609565b604051901515815260200161022b565b61026a61026536600461222a565b610620565b005b6002545b60405190815260200161022b565b61024761028c366004612278565b61067d565b61024761029f36600461222a565b6001600160a01b031660009081526009602052604090205460ff1690565b6102707f6e71edae12b1b97f4d1f60370fef10105fa2faae0126114a169c64845d6126c981565b6040516000815260200161022b565b6102fb610727565b60405161022b919061242d565b61027060065481565b61024761031f36600461239c565b610787565b61026a61033236600461222a565b6107c3565b61026a610345366004612414565b610814565b61026a610866565b61026a6103603660046123c6565b6108b8565b60055460ff16610247565b61026a61037e36600461222a565b610a62565b61027061039136600461222a565b6001600160a01b031660009081526020819052604090205490565b61026a610ab3565b6102706103c236600461222a565b6001600160a01b031660009081526007602052604090205490565b6102707fd099cc98ef71107a616c4f0f941f04c322d8e254fe26b3c6668db87aae413de881565b61021e610b29565b61026a61041a366004612414565b610b38565b6102707f7c7c6cdb67a18743f49ec6fa9b35f50d52ed05cbed4cc592e13b44501c1a226781565b61024761045436600461239c565b610b8a565b61024761046736600461239c565b610c23565b61024761047a36600461222a565b610c30565b61026a61048d36600461222a565b610c4e565b61026a6104a036600461222a565b610cc6565b61026a6104b3366004612332565b610d17565b6102707f158b0a9edf7a828aad02f63cd515c68ef2f50ba807396f6d12842833a159742981565b6102706104ed366004612245565b6001600160a01b03918216600090815260016020908152604080832093909416825291909152205490565b61026a6105263660046122b4565b610e85565b61024761053936600461239c565b6001600160a01b03919091166000908152600860209081526040808320938352929052205460ff1690565b61026a6105723660046122b4565b610ec2565b606060038054610586906125bc565b80601f01602080910402602001604051908101604052809291908181526020018280546105b2906125bc565b80156105ff5780601f106105d4576101008083540402835291602001916105ff565b820191906000526020600020905b8154815290600101906020018083116105e257829003601f168201915b5050505050905090565b6000610616338484611052565b5060015b92915050565b6106293361029f565b61064e5760405162461bcd60e51b81526004016106459061253f565b60405180910390fd5b60055460ff16156106715760405162461bcd60e51b815260040161064590612515565b61067a81611176565b50565b600061068a848484611227565b6001600160a01b03841660009081526001602090815260408083203384529091529020548281101561070f5760405162461bcd60e51b815260206004820152602860248201527f45524332303a207472616e7366657220616d6f756e74206578636565647320616044820152676c6c6f77616e636560c01b6064820152608401610645565b61071c8533858403611052565b506001949350505050565b600c805460408051602080840282018101909252828152606093909290918301828280156105ff57602002820191906000526020600020905b81546001600160a01b03168152600190910190602001808311610760575050505050905090565b3360008181526001602090815260408083206001600160a01b038716845290915281205490916106169185906107be90869061258d565b611052565b6107cc3361029f565b6107e85760405162461bcd60e51b81526004016106459061253f565b60055460ff161561080b5760405162461bcd60e51b815260040161064590612515565b61067a8161140c565b61081d3361029f565b6108395760405162461bcd60e51b81526004016106459061253f565b60055460ff161561085c5760405162461bcd60e51b815260040161064590612515565b61067a3382611458565b61086f3361029f565b61088b5760405162461bcd60e51b81526004016106459061253f565b60055460ff16156108ae5760405162461bcd60e51b815260040161064590612515565b6108b66115b9565b565b6001600160a01b0385166000908152600860209081526040808320878452825291829020548251808401909352601e83527f454950333030393a20617574686f72697a6174696f6e206973207573656400009183019190915260ff16156109325760405162461bcd60e51b8152600401610645919061247a565b50604080517f158b0a9edf7a828aad02f63cd515c68ef2f50ba807396f6d12842833a159742960208201526001600160a01b03871691810191909152606081018590526000906080016040516020818303038152906040529050856001600160a01b03166109a56006548686868661162e565b6001600160a01b0316146040518060400160405280601a81526020017f454950333030393a20696e76616c6964207369676e617475726500000000000081525090610a035760405162461bcd60e51b8152600401610645919061247a565b506001600160a01b0386166000818152600860209081526040808320898452909152808220805460ff19166001179055518792917f1cdd46ff242716cdaa72d159d339a485b3438398348d68f09d7c8c0a59353d8191a3505050505050565b610a6b3361029f565b610a875760405162461bcd60e51b81526004016106459061253f565b60055460ff1615610aaa5760405162461bcd60e51b815260040161064590612515565b61067a81611690565b610abc3361029f565b610ad85760405162461bcd60e51b81526004016106459061253f565b60055460ff16610b215760405162461bcd60e51b815260206004820152601460248201527314185d5cd8589b194e881b9bdd081c185d5cd95960621b6044820152606401610645565b6108b66116dc565b606060048054610586906125bc565b610b413361029f565b610b5d5760405162461bcd60e51b81526004016106459061253f565b60055460ff1615610b805760405162461bcd60e51b815260040161064590612515565b61067a3382611756565b3360009081526001602090815260408083206001600160a01b038616845290915281205482811015610c0c5760405162461bcd60e51b815260206004820152602560248201527f45524332303a2064656372656173656420616c6c6f77616e63652062656c6f77604482015264207a65726f60d81b6064820152608401610645565b610c193385858403611052565b5060019392505050565b6000610616338484611227565b6001600160a01b03166000908152600a602052604090205460ff1690565b610c573361029f565b610c735760405162461bcd60e51b81526004016106459061253f565b60055460ff1615610c965760405162461bcd60e51b815260040161064590612515565b6001600160a01b038116600090815260208190526040902054610cb98282611458565b610cc282610cc6565b5050565b610ccf3361029f565b610ceb5760405162461bcd60e51b81526004016106459061253f565b60055460ff1615610d0e5760405162461bcd60e51b815260040161064590612515565b61067a81611849565b42841015610d675760405162461bcd60e51b815260206004820152601a60248201527f454950323631323a207065726d697420697320657870697265640000000000006044820152606401610645565b6001600160a01b038716600090815260076020526040812080547f6e71edae12b1b97f4d1f60370fef10105fa2faae0126114a169c64845d6126c9918a918a918a919086610db4836125f7565b909155506040805160208101969096526001600160a01b0394851690860152929091166060840152608083015260a082015260c0810186905260e0016040516020818303038152906040529050876001600160a01b0316610e1a6006548686868661162e565b6001600160a01b031614610e705760405162461bcd60e51b815260206004820152601a60248201527f454950323631323a20696e76616c6964207369676e61747572650000000000006044820152606401610645565b610e7b8888886118fa565b5050505050505050565b610eb77f7c7c6cdb67a18743f49ec6fa9b35f50d52ed05cbed4cc592e13b44501c1a22678a8a8a8a8a8a8a8a8a611905565b505050505050505050565b6001600160a01b0388163314610f245760405162461bcd60e51b815260206004820152602160248201527f454950333030393a2063616c6c6572206d7573742062652074686520706179656044820152606560f81b6064820152608401610645565b610eb77fd099cc98ef71107a616c4f0f941f04c322d8e254fe26b3c6668db87aae413de88a8a8a8a8a8a8a8a8a611905565b8151602092830120815191830191909120604080517f8b73c3c69bb8fe3d512ecc4cf759cc79239f7b179b0ffacaa9a75d522b39400f818601528082019390935260608301919091524660808301523060a0808401919091528151808403909101815260c09092019052805191012090565b60055460ff161561102e5760405162461bcd60e51b815260206004820152602a60248201527f45524332305061757361626c653a20746f6b656e207472616e736665722077686044820152691a5b19481c185d5cd95960b21b6064820152608401610645565b505050565b600061103f8383611b77565b9392505050565b600061103f8383611be9565b6001600160a01b0383166110b45760405162461bcd60e51b8152602060048201526024808201527f45524332303a20617070726f76652066726f6d20746865207a65726f206164646044820152637265737360e01b6064820152608401610645565b6001600160a01b0382166111155760405162461bcd60e51b815260206004820152602260248201527f45524332303a20617070726f766520746f20746865207a65726f206164647265604482015261737360f01b6064820152608401610645565b6001600160a01b0383811660008181526001602090815260408083209487168084529482529182902085905590518481527f8c5be1e5ebec7d5bd14f71427d1e84f3dd0314c0f7b2291e5b200ac8c7c3b925910160405180910390a3505050565b6001600160a01b03811660009081526009602052604090205460ff166111de5760405162461bcd60e51b815260206004820152601860248201527f41646d696e3a2061646472657373206e6f7420666f756e6400000000000000006044820152606401610645565b6001600160a01b038116600081815260096020526040808220805460ff19169055517fa3b62bc36326052d97ea62d63c3d60308ed4c3ea8ac079dd8499f1e9c4f80c0f9190a250565b6001600160a01b03831661128b5760405162461bcd60e51b815260206004820152602560248201527f45524332303a207472616e736665722066726f6d20746865207a65726f206164604482015264647265737360d81b6064820152608401610645565b6001600160a01b0382166112ed5760405162461bcd60e51b815260206004820152602360248201527f45524332303a207472616e7366657220746f20746865207a65726f206164647260448201526265737360e81b6064820152608401610645565b6112f8838383611d1f565b6001600160a01b038316600090815260208190526040902054818110156113705760405162461bcd60e51b815260206004820152602660248201527f45524332303a207472616e7366657220616d6f756e7420657863656564732062604482015265616c616e636560d01b6064820152608401610645565b6001600160a01b038085166000908152602081905260408082208585039055918516815290812080548492906113a790849061258d565b92505081905550826001600160a01b0316846001600160a01b03167fddf252ad1be2c89b69c2b068fc378daa952ba7f163c4a11628f55a4df523b3ef846040516113f391815260200190565b60405180910390a3611406848484611f25565b50505050565b6001600160a01b0381166000818152600a6020526040808220805460ff19166001179055517f9ea20b4b24a73c0e970c10af330adec19eeef14a64c4738bf92fd21de1bbe5609190a250565b6001600160a01b0382166114b85760405162461bcd60e51b815260206004820152602160248201527f45524332303a206275726e2066726f6d20746865207a65726f206164647265736044820152607360f81b6064820152608401610645565b6114c482600083611d1f565b6001600160a01b038216600090815260208190526040902054818110156115385760405162461bcd60e51b815260206004820152602260248201527f45524332303a206275726e20616d6f756e7420657863656564732062616c616e604482015261636560f01b6064820152608401610645565b6001600160a01b03831660009081526020819052604081208383039055600280548492906115679084906125a5565b90915550506040518281526000906001600160a01b038516907fddf252ad1be2c89b69c2b068fc378daa952ba7f163c4a11628f55a4df523b3ef9060200160405180910390a361102e83600084611f25565b60055460ff16156115dc5760405162461bcd60e51b815260040161064590612515565b6005805460ff191660011790557f62e78cea01bee320cd4e420270b5ea74000d11b0c9f74754ebdbfc544b05a2586116113390565b6040516001600160a01b03909116815260200160405180910390a1565b60008086838051906020012060405160200161166192919061190160f01b81526002810192909252602282015260420190565b6040516020818303038152906040528051906020012090506116858187878761203d565b979650505050505050565b6001600160a01b038116600081815260096020526040808220805460ff19166001179055517f44d6d25963f097ad14f29f06854a01f575648a1ef82f30e562ccd3889717e3399190a250565b60055460ff166117255760405162461bcd60e51b815260206004820152601460248201527314185d5cd8589b194e881b9bdd081c185d5cd95960621b6044820152606401610645565b6005805460ff191690557f5db9ee0a495bf2e6ff9c91a7834c1ba4fdd244a5e8aa4e537bd38aeae4b073aa33611611565b6001600160a01b0382166117ac5760405162461bcd60e51b815260206004820152601f60248201527f45524332303a206d696e7420746f20746865207a65726f2061646472657373006044820152606401610645565b6117b860008383611d1f565b80600260008282546117ca919061258d565b90915550506001600160a01b038216600090815260208190526040812080548392906117f790849061258d565b90915550506040518181526001600160a01b038316906000907fddf252ad1be2c89b69c2b068fc378daa952ba7f163c4a11628f55a4df523b3ef9060200160405180910390a3610cc260008383611f25565b6001600160a01b0381166000908152600a602052604090205460ff166118b15760405162461bcd60e51b815260206004820152601c60248201527f57686974656c6973743a2061646472657373206e6f7420666f756e64000000006044820152606401610645565b6001600160a01b0381166000818152600a6020526040808220805460ff19169055517f2818dfb79e14f8de687ac3a0c89372c70c8f4027af22163ecdda632f727eab849190a250565b61102e838383611052565b8542116119645760405162461bcd60e51b815260206004820152602760248201527f454950333030393a20617574686f72697a6174696f6e206973206e6f742079656044820152661d081d985b1a5960ca1b6064820152608401610645565b8442106119bd5760405162461bcd60e51b815260206004820152602160248201527f454950333030393a20617574686f72697a6174696f6e206973206578706972656044820152601960fa1b6064820152608401610645565b6001600160a01b0389166000908152600860209081526040808320878452825291829020548251808401909352601e83527f454950333030393a20617574686f72697a6174696f6e206973207573656400009183019190915260ff1615611a375760405162461bcd60e51b8152600401610645919061247a565b5060408051602081018c90526001600160a01b03808c169282019290925290891660608201526080810188905260a0810187905260c0810186905260e08101859052600090610100016040516020818303038152906040529050896001600160a01b0316611aaa6006548686868661162e565b6001600160a01b0316146040518060400160405280601a81526020017f454950333030393a20696e76616c6964207369676e617475726500000000000081525090611b085760405162461bcd60e51b8152600401610645919061247a565b506001600160a01b038a166000818152600860209081526040808320898452909152808220805460ff19166001179055518792917f98de503528ee59b575ef0c0a2576a82497bfc029a5685b209e9ec333479b10a591a3611b6a8a8a8a6121f2565b5050505050505050505050565b6001600160a01b0381166000908152600183016020526040812054611be157508154600180820184556000848152602080822090930180546001600160a01b0319166001600160a01b0386169081179091558554908252828601909352604090209190915561061a565b50600061061a565b6001600160a01b03811660009081526001830160205260408120548015611d15576000611c176001836125a5565b8554909150600090611c2b906001906125a5565b9050818114611cb7576000866000018281548110611c4b57611c4b612660565b60009182526020909120015487546001600160a01b0390911691508190889085908110611c7a57611c7a612660565b600091825260208083209190910180546001600160a01b0319166001600160a01b0394851617905592909116815260018801909152604090208390555b8554869080611cc857611cc861264a565b60008281526020808220830160001990810180546001600160a01b03191690559092019092556001600160a01b038716825260018881019091526040822091909155935061061a92505050565b600091505061061a565b611d2a838383610fc8565b6001811015611d855760405162461bcd60e51b815260206004820152602160248201527f53776973735368617265733a204d696e696d756d20616d6f756e74206572726f6044820152603960f91b6064820152608401610645565b62989680811115611de25760405162461bcd60e51b815260206004820152602160248201527f53776973735368617265733a204d6178696d756d20616d6f756e74206572726f6044820152603960f91b6064820152608401610645565b611ded600182612612565b15611e505760405162461bcd60e51b815260206004820152602d60248201527f53776973735368617265733a2043616e2774207472616e73666572206672616360448201526c1d1a5bdb985b08185b5bdd5b9d609a1b6064820152608401610645565b6001600160a01b038316611ec457611e6782610c30565b61102e5760405162461bcd60e51b815260206004820152602860248201527f53776973735368617265733a205265636569766572206973206e6f74207768696044820152671d195b1a5cdd195960c21b6064820152608401610645565b6001600160a01b038216611ef757611edb83610c30565b61102e5760405162461bcd60e51b8152600401610645906124cf565b611f0083610c30565b611f1c5760405162461bcd60e51b8152600401610645906124cf565b611e6782610c30565b6001600160a01b03821615801590611f5357506001600160a01b0382166000908152600b6020526040902054155b15611f6557611f63600c83611033565b505b6001600160a01b0383166000908152600b602052604090205415801590611fad57506001600160a01b0383166000908152600b6020526040902054611fab9082906125a5565b155b15611fbf57611fbd600c84611046565b505b6001600160a01b03821615611ffc576001600160a01b0382166000908152600b602052604081208054839290611ff690849061258d565b90915550505b6001600160a01b0383161561102e576001600160a01b0383166000908152600b6020526040812080548392906120339084906125a5565b9091555050505050565b60007f7fffffffffffffffffffffffffffffff5d576e7357a4501ddfe92f46681b20a08211156120be5760405162461bcd60e51b815260206004820152602660248201527f45435265636f7665723a20696e76616c6964207369676e6174757265202773276044820152652076616c756560d01b6064820152608401610645565b8360ff16601b141580156120d657508360ff16601c14155b156121325760405162461bcd60e51b815260206004820152602660248201527f45435265636f7665723a20696e76616c6964207369676e6174757265202776276044820152652076616c756560d01b6064820152608401610645565b6040805160008082526020820180845288905260ff871692820192909252606081018590526080810184905260019060a0016020604051602081039080840390855afa158015612186573d6000803e3d6000fd5b5050604051601f1901519150506001600160a01b0381166121e95760405162461bcd60e51b815260206004820152601c60248201527f45435265636f7665723a20696e76616c6964207369676e6174757265000000006044820152606401610645565b95945050505050565b61102e838383611227565b80356001600160a01b038116811461221457600080fd5b919050565b803560ff8116811461221457600080fd5b60006020828403121561223c57600080fd5b61103f826121fd565b6000806040838503121561225857600080fd5b612261836121fd565b915061226f602084016121fd565b90509250929050565b60008060006060848603121561228d57600080fd5b612296846121fd565b92506122a4602085016121fd565b9150604084013590509250925092565b60008060008060008060008060006101208a8c0312156122d357600080fd5b6122dc8a6121fd565b98506122ea60208b016121fd565b975060408a0135965060608a0135955060808a0135945060a08a0135935061231460c08b01612219565b925060e08a013591506101008a013590509295985092959850929598565b600080600080600080600060e0888a03121561234d57600080fd5b612356886121fd565b9650612364602089016121fd565b9550604088013594506060880135935061238060808901612219565b925060a0880135915060c0880135905092959891949750929550565b600080604083850312156123af57600080fd5b6123b8836121fd565b946020939093013593505050565b600080600080600060a086880312156123de57600080fd5b6123e7866121fd565b9450602086013593506123fc60408701612219565b94979396509394606081013594506080013592915050565b60006020828403121561242657600080fd5b5035919050565b6020808252825182820181905260009190848201906040850190845b8181101561246e5783516001600160a01b031683529284019291840191600101612449565b50909695505050505050565b600060208083528351808285015260005b818110156124a75785810183015185820160400152820161248b565b818111156124b9576000604083870101525b50601f01601f1916929092016040019392505050565b60208082526026908201527f53776973735368617265733a2053656e646572206973206e6f742077686974656040820152651b1a5cdd195960d21b606082015260800190565b60208082526010908201526f14185d5cd8589b194e881c185d5cd95960821b604082015260600190565b6020808252602e908201527f41646d696e526f6c653a2063616c6c657220646f6573206e6f7420686176652060408201526d7468652041646d696e20726f6c6560901b606082015260800190565b600082198211156125a0576125a0612634565b500190565b6000828210156125b7576125b7612634565b500390565b600181811c908216806125d057607f821691505b602082108114156125f157634e487b7160e01b600052602260045260246000fd5b50919050565b600060001982141561260b5761260b612634565b5060010190565b60008261262f57634e487b7160e01b600052601260045260246000fd5b500690565b634e487b7160e01b600052601160045260246000fd5b634e487b7160e01b600052603160045260246000fd5b634e487b7160e01b600052603260045260246000fdfea2646970667358221220e3d1c317edf1b531024b36e057f183a711d1a2bbbb8b94835040d9e2c970cca164736f6c6343000807003353776973735368617265733a2053656e646572206973206e6f74207768697465",
    "sourcePath": "c:/xampp/htdocs/sharessmartcontract/contracts/SwissShares.sol",
    "compiler": {
        "name": "solc",
        "version": "0.8.7+commit.e28d00a7"
    },
    "functionHashes": {
        "CANCEL_AUTHORIZATION_TYPEHASH()": "d9169487",
        "DOMAIN_SEPARATOR()": "3644e515",
        "PERMIT_TYPEHASH()": "30adf81f",
        "RECEIVE_WITH_AUTHORIZATION_TYPEHASH()": "7f2eecc3",
        "TRANSFER_WITH_AUTHORIZATION_TYPEHASH()": "a0cc6a68",
        "addAdmin(address)": "70480275",
        "addWalletToWhitelist(address)": "3f0f42e2",
        "allowance(address,address)": "dd62ed3e",
        "approve(address,uint256)": "095ea7b3",
        "authorizationState(address,bytes32)": "e94a0102",
        "balanceOf(address)": "70a08231",
        "burn(uint256)": "42966c68",
        "cancelAuthorization(address,bytes32,uint8,bytes32,bytes32)": "5a049a70",
        "decimals()": "313ce567",
        "decreaseAllowance(address,uint256)": "a457c2d7",
        "freezeTransfersFromWallet(address)": "ccf6644e",
        "getAllTokenHolders()": "32fb56ca",
        "increaseAllowance(address,uint256)": "39509351",
        "isAdmin(address)": "24d7806c",
        "isWalletWhitelisted(address)": "aac8f967",
        "mint(uint256)": "a0712d68",
        "name()": "06fdde03",
        "nonces(address)": "7ecebe00",
        "pauseTransfers()": "47af9957",
        "paused()": "5c975abb",
        "permit(address,address,uint256,uint256,uint8,bytes32,bytes32)": "d505accf",
        "receiveWithAuthorization(address,address,uint256,uint256,uint256,bytes32,uint8,bytes32,bytes32)": "ef55bec6",
        "removeAdmin(address)": "1785f53c",
        "removeWalletFromWhitelist(address)": "ce23772b",
        "symbol()": "95d89b41",
        "totalSupply()": "18160ddd",
        "transfer(address,uint256)": "a9059cbb",
        "transferFrom(address,address,uint256)": "23b872dd",
        "transferWithAuthorization(address,address,uint256,uint256,uint256,bytes32,uint8,bytes32,bytes32)": "e3ee160e",
        "unPauseTransfers()": "710d6a61"
    },
    "gasEstimates": {
        "creation": {
            "codeDepositCost": "1980000",
            "executionCost": "infinite",
            "totalCost": "infinite"
        },
        "external": {
            "CANCEL_AUTHORIZATION_TYPEHASH()": "239",
            "DOMAIN_SEPARATOR()": "2363",
            "PERMIT_TYPEHASH()": "285",
            "RECEIVE_WITH_AUTHORIZATION_TYPEHASH()": "307",
            "TRANSFER_WITH_AUTHORIZATION_TYPEHASH()": "284",
            "addAdmin(address)": "30279",
            "addWalletToWhitelist(address)": "30258",
            "allowance(address,address)": "infinite",
            "approve(address,uint256)": "24666",
            "authorizationState(address,bytes32)": "2758",
            "balanceOf(address)": "2586",
            "burn(uint256)": "infinite",
            "cancelAuthorization(address,bytes32,uint8,bytes32,bytes32)": "infinite",
            "decimals()": "289",
            "decreaseAllowance(address,uint256)": "26999",
            "freezeTransfersFromWallet(address)": "infinite",
            "getAllTokenHolders()": "infinite",
            "increaseAllowance(address,uint256)": "27025",
            "isAdmin(address)": "2617",
            "isWalletWhitelisted(address)": "2606",
            "mint(uint256)": "infinite",
            "name()": "infinite",
            "nonces(address)": "2627",
            "pauseTransfers()": "32039",
            "paused()": "2415",
            "permit(address,address,uint256,uint256,uint8,bytes32,bytes32)": "infinite",
            "receiveWithAuthorization(address,address,uint256,uint256,uint256,bytes32,uint8,bytes32,bytes32)": "infinite",
            "removeAdmin(address)": "32441",
            "removeWalletFromWhitelist(address)": "32439",
            "symbol()": "infinite",
            "totalSupply()": "2394",
            "transfer(address,uint256)": "infinite",
            "transferFrom(address,address,uint256)": "infinite",
            "transferWithAuthorization(address,address,uint256,uint256,uint256,bytes32,uint8,bytes32,bytes32)": "infinite",
            "unPauseTransfers()": "32025"
        },
        "internal": {
            "_afterTokenTransfer(address,address,uint256)": "infinite",
            "_beforeTokenTransfer(address,address,uint256)": "infinite",
            "authTransfer(address,address,uint256)": "infinite",
            "permitApprove(address,address,uint256)": "infinite"
        }
    }
}