{
    "contractName": "Admin",
    "abi": [
        {
            "inputs": [],
            "stateMutability": "nonpayable",
            "type": "constructor"
        },
        {
            "anonymous": false,
            "inputs": [
                {
                    "indexed": true,
                    "internalType": "address",
                    "name": "account",
                    "type": "address"
                }
            ],
            "name": "AdminAdded",
            "type": "event"
        },
        {
            "anonymous": false,
            "inputs": [
                {
                    "indexed": true,
                    "internalType": "address",
                    "name": "account",
                    "type": "address"
                }
            ],
            "name": "AdminRemoved",
            "type": "event"
        },
        {
            "inputs": [
                {
                    "internalType": "address",
                    "name": "account",
                    "type": "address"
                }
            ],
            "name": "isAdmin",
            "outputs": [
                {
                    "internalType": "bool",
                    "name": "",
                    "type": "bool"
                }
            ],
            "stateMutability": "view",
            "type": "function"
        }
    ],
    "bytecode": "608060405234801561001057600080fd5b5061001a3361001f565b61006b565b6001600160a01b038116600081815260208190526040808220805460ff19166001179055517f44d6d25963f097ad14f29f06854a01f575648a1ef82f30e562ccd3889717e3399190a250565b60ce806100796000396000f3fe6080604052348015600f57600080fd5b506004361060285760003560e01c806324d7806c14602d575b600080fd5b60566038366004606a565b6001600160a01b031660009081526020819052604090205460ff1690565b604051901515815260200160405180910390f35b600060208284031215607b57600080fd5b81356001600160a01b0381168114609157600080fd5b939250505056fea2646970667358221220f33d1a9d881033af508e301e6483ed35bd2310cbdabcdfd78b7786b7e9a700b464736f6c63430008070033",
    "sourcePath": "c:/xampp/htdocs/sharessmartcontract/contracts/lib/Admin.sol",
    "compiler": {
        "name": "solc",
        "version": "0.8.7+commit.e28d00a7"
    },
    "functionHashes": {
        "isAdmin(address)": "24d7806c"
    },
    "gasEstimates": {
        "creation": {
            "codeDepositCost": "41200",
            "executionCost": "25587",
            "totalCost": "66787"
        },
        "external": {
            "isAdmin(address)": "2483"
        },
        "internal": {
            "_addAdmin(address)": "infinite",
            "_removeAdmin(address)": "infinite"
        }
    }
}