{
    "contractName": "EIP712",
    "abi": [
        {
            "inputs": [],
            "name": "EIP712_DOMAIN_TYPEHASH",
            "outputs": [
                {
                    "internalType": "bytes32",
                    "name": "",
                    "type": "bytes32"
                }
            ],
            "stateMutability": "view",
            "type": "function"
        }
    ],
    "bytecode": "60a6610038600b82828239805160001a607314602b57634e487b7160e01b600052600060045260246000fd5b30600052607381538281f3fe730000000000000000000000000000000000000000301460806040526004361060335760003560e01c8063c7977be7146038575b600080fd5b605e7f8b73c3c69bb8fe3d512ecc4cf759cc79239f7b179b0ffacaa9a75d522b39400f81565b60405190815260200160405180910390f3fea2646970667358221220249af254b1ed1ef196d3ffd192509e8213597b735d886fe48cc63bf12336aa9b64736f6c63430008070033",
    "sourcePath": "c:/xampp/htdocs/sharessmartcontract/contracts/lib/EIP712.sol",
    "compiler": {
        "name": "solc",
        "version": "0.8.7+commit.e28d00a7"
    },
    "functionHashes": {
        "EIP712_DOMAIN_TYPEHASH()": "c7977be7"
    },
    "gasEstimates": {
        "creation": {
            "codeDepositCost": "33200",
            "executionCost": "118",
            "totalCost": "33318"
        },
        "external": {
            "EIP712_DOMAIN_TYPEHASH()": "145"
        },
        "internal": {
            "makeDomainSeparator(string memory,string memory)": "infinite",
            "recover(bytes32,uint8,bytes32,bytes32,bytes memory)": "infinite"
        }
    }
}