{
    "contractName": "Whitelist",
    "abi": [
        {
            "inputs": [],
            "stateMutability": "nonpayable",
            "type": "constructor"
        },
        {
            "anonymous": false,
            "inputs": [
                {
                    "indexed": true,
                    "internalType": "address",
                    "name": "account",
                    "type": "address"
                }
            ],
            "name": "WalletAddedToWhitelist",
            "type": "event"
        },
        {
            "anonymous": false,
            "inputs": [
                {
                    "indexed": true,
                    "internalType": "address",
                    "name": "account",
                    "type": "address"
                }
            ],
            "name": "WalletRemovedFromWhitelist",
            "type": "event"
        },
        {
            "inputs": [
                {
                    "internalType": "address",
                    "name": "account",
                    "type": "address"
                }
            ],
            "name": "isWalletWhitelisted",
            "outputs": [
                {
                    "internalType": "bool",
                    "name": "",
                    "type": "bool"
                }
            ],
            "stateMutability": "view",
            "type": "function"
        }
    ],
    "bytecode": "608060405234801561001057600080fd5b5061001a3361001f565b61006b565b6001600160a01b038116600081815260208190526040808220805460ff19166001179055517f9ea20b4b24a73c0e970c10af330adec19eeef14a64c4738bf92fd21de1bbe5609190a250565b60ce806100796000396000f3fe6080604052348015600f57600080fd5b506004361060285760003560e01c8063aac8f96714602d575b600080fd5b60566038366004606a565b6001600160a01b031660009081526020819052604090205460ff1690565b604051901515815260200160405180910390f35b600060208284031215607b57600080fd5b81356001600160a01b0381168114609157600080fd5b939250505056fea2646970667358221220f27e78f468716f6bba06c9eafc83684075a59399065b6c9286eb6818b113b77d64736f6c63430008070033",
    "sourcePath": "c:/xampp/htdocs/sharessmartcontract/contracts/lib/Whitelist.sol",
    "compiler": {
        "name": "solc",
        "version": "0.8.7+commit.e28d00a7"
    },
    "functionHashes": {
        "isWalletWhitelisted(address)": "aac8f967"
    },
    "gasEstimates": {
        "creation": {
            "codeDepositCost": "41200",
            "executionCost": "25587",
            "totalCost": "66787"
        },
        "external": {
            "isWalletWhitelisted(address)": "2483"
        },
        "internal": {
            "_add(address)": "infinite",
            "_remove(address)": "infinite"
        }
    }
}